:020000040000fa
:080000000002040000000000f2
:020000040000fa
:10000800ba030000ba030000ba030000ba030000f4
:10001800ba030000ba030000ba030000ba030000e4
:100028009adb0000ba030000ba030000f0e2000007
:10003800ba030000ba030000ba030000ba030000c4
:100048006ab90000ba030000ba030000beb9000094
:1000580098b90000ba030000ba030000ba03000010
:10006800ba030000ba030000ba030000ba03000094
:10007800ba030000ba030000ba030000ba03000084
:10008800ba030000ba030000ba030000ba03000074
:1000980048e30000ba030000d2020000ba030000df
:1000a800ba030000ba030000ba030000ba03000054
:1000b800ba030000ba030000ba030000ba03000044
:1000c800ba030000ba030000ba030000ba03000034
:1000d800ba030000ba030000ba030000ba03000024
:1000e800ba030000ba030000ba030000ba03000014
:1000f800ba030000ba030000ba030000ba03000004
:10010800ba030000ba030000ba030000ba030000f3
:10011800ba030000ba030000ba030000ba030000e3
:10012800ba030000b4b90000ba030000ba03000023
:10013800ba030000ba030000ba030000ba030000c3
:10014800ba030000ba030000ba030000ba030000b3
:10015800ba030000ba030000ba030000ba030000a3
:10016800ba030000ba030000ba030000ba03000093
:10017800ba030000ba030000ba030000ba03000083
:10018800ba030000ba030000ba030000ba03000073
:10019800ba030000ba030000ba030000ba03000063
:1001a800ba030000ba030000ba030000ba03000053
:1001b800ba030000ba030000ba030000ba03000043
:1001c800ba030000ba030000ba030000ba03000033
:1001d800ba030000ba030000ba030000ba03000023
:1001e800ba030000ba030000ba030000ba03000013
:1001f800ba030000ba030000ba030000ba03000003
:10020800ba030000ba030000ba030000ba030000f2
:10021800ba030000ba030000ba030000ba030000e2
:10022800ba030000ba030000ba030000ba030000d2
:10023800ba030000ba030000ba030000ba030000c2
:10024800ba030000ba030000ba030000ba030000b2
:10025800ba030000ba030000ba030000ba030000a2
:10026800ba030000ba030000ba030000ba03000092
:0c027800ba030000ba030000ba03000043
:020000040000fa
:100400002fc026000eff27000e018800000000000c
:10041000000020000000e000020032000001200087
:10042000200288000c000700e0072e0001002000d9
:100430000f000700000020000000e0000200320072
:100440000000020000000000e0e4020000000000e4
:100450000040da000000fe00a08d20000000e00057
:1004600002003200002020009001880000000600f9
:10047000a1028800800078000000eb001a0037001d
:10048000e280400054a0b4009101ba00e280400034
:1004900054a0b4009102ba00e280400054a0b4001d
:1004a0000002eb00472bde00f507b200a601880032
:1004b000602ce10008003a000049eb000201e8006e
:1004c000020039003420ec0002f0a0008301e900b2
:1004d000f9ff3e00040037006128e100010032000e
:1004e0000082eb00040007001101ba000200e000e6
:1004f000e3ff3a000000060004d0a300e20f490029
:100500001c003900810278003549ba000201e80078
:10051000020039003420ec0002f0a0008301e90061
:100520000f0032002549ba000201e800020039003c
:100530003420ec0002f0a0008301e9000800320042
:100540000400e0000600320015c9ba000201e8000c
:10055000020039003420ec0002f0a0008301e90021
:100560008180e80054a0b4000300e000e2ff3a00fc
:10057000000006009102ba00055978008301e900e5
:10058000f7ff3200c82ade00055978008301e90030
:10059000f3ff32000400e000f1ff320011d9ba008d
:1005a000eeff3700849fbe00861f78000000fa002f
:1005b000154080000400240004826200e00f520015
:1005c0001e003200b41180008442780024662600a8
:1005d000054a7800246626009442780044d9290010
:1005e0001442780084c2620024662600054a78001e
:1005f000243383002566260095427800666626002f
:1006000004024300054a780024338300656626000f
:100610000482420014427800ed4f520003003a0079
:10062000b49681000410a000b4968900243383009e
:100630000402e80024338b0003c8a9009411800051
:100640004322de00614262008482fb00941180003c
:100650004222de00614262000482fb0085027200d9
:10066000941180000402d100614262000482fb0008
:1006700005027200e00f5200030032003242a9006e
:100680003262a9003222a9000080fa004f037800ec
:100690004f02be00004006000200fa00004f780042
:1006a00000000000951180000420200004826200f8
:1006b000e00f5200fbff3a001e4278008482fb00ec
:1006c000f407200004826200a411880000000000ea
:1006d000951180000410200004826200e00f520097
:1006e000fbff32000080fa00000006000800fa005c
:1006f00011eea800108ea9003400200014348800e8
:10070000f402200034368800044120000500200057
:100710006033b800049fbe000697be001e0278003a
:10072000c4118800a4002000841188000440200027
:100730009411880003e8a90003c8a90033a2a90006
:1007400033e2a90031e2a8003342a80003e8a9007f
:1007500003c8a90023c8a800744280000480a10037
:100760000490a00004a0a100744288000080fa0058
:10077000000006000040da000000fe008000780063
:100780001106b100030035009101b10001003c00e9
:100790000050a100000006000a00fa00e20f50001d
:1007a00022003e0004608300e10f52000600320088
:1007b0008723200046232000242320000523200037
:1007c000e08f530004003a008722200046222000d8
:1007d00024222000052220000000280015006000cf
:1007e00003003a00800b780007002800958a730008
:1007f000054020009482620001003a0014a0a0008d
:100800008202780006003700940378000710b200d7
:10081000fdff3200b103fb00070b78008502e90001
:10082000e08f5200f8ff3a00080037003400200043
:100830001007980032079800040f780021079800ed
:100840000e007800320807003e0190000200780098
:100850000080fa0000000600040024000000fa00f6
:100860000602ab00feff3a000642ab00fcff3a0076
:100870000662ab00faff3a000622ab00f8ff3a002e
:100880000682ab00f6ff3a00461080008602620046
:10089000f3ff3a000080fa00000006000662a8009c
:1008a0000000fa000662ab00feff3a0008c2a90091
:1008b0000080fa0000108000000006000080fb00ad
:1008c0000000fa001010880000c0eb0008e2ab0046
:1008d00009003a00040024004610800086026200ed
:1008e000fdff3a00dcff0700000028000802b60008
:1008f00001003200e0cfb3000080fa0000000600e3
:1009000006a2a8000000fa000682a8000080fa00f3
:10091000000006000622a8000000fa000080fa008d
:10092000000006000602a8000000fa000080fa009d
:10093000000006000642a8000000fa000080fa004d
:10094000000006000108a900670260000000fa002c
:1009500085ff2f00680060002642800086826200ca
:100960004300de00850272006100600025428800bd
:100970004800dd00f4ef2f000080fa000541800000
:1009800005026200040270000441880000000600b5
:100990000002eb000000fa00340888000080fa0032
:1009a000540888006208880073088800800888005e
:1009b0001061a8000000060003f0a200889fbe009e
:1009c0008a9fbe008c1f7800230107002a01330094
:1009d0006450e1004f0032006420e1005200320018
:1009e00003826c0007003b000905d0000306d0001d
:1009f000820f54000c065d00020039000200320034
:100a000089017800030678008582550004003d00c6
:100a10000003fd008103fd008502ea008b85420092
:100a2000840f720002003b0060001000e08018009c
:100a30006011b8000005eb007a28e1000a003900d7
:100a400006007800c75ddd00f707b20087807500fb
:100a50002d003700828171000a0178006105600075
:100a60008180d1000080d3008502e900f9ff3b00be
:100a7000060440008784480002003b006004140024
:100a8000e0841c000988a300070032008a817100fd
:100a900082817100610164008904d1000884d3005f
:100aa0008b05e800170037000978a30013003a000f
:100ab0000b00e000130034008b05e900080444003b
:100ac00089844c000a4474000978a3000d003a00a0
:100ad0000b00e000070034008b05e9000804440027
:100ae00089844c0001003a000b0020000978a30023
:100af000f7ff32000001eb00020037008281710035
:100b00000a017800990007000cf0a70001f0a0008e
:100b1000e20037006420e10002003a00838f6c009d
:100b2000e20033000801be000200be00db00370017
:100b3000889fbe008a9fbe008c1f7800c6000700f9
:100b4000cd00330003866c006450e1002e003200bb
:100b50006420e100330032006150e1002f003200d8
:100b60006120e1003100320085855500eb07b000bf
:100b70000900200008042000050037000804440094
:100b800089844c000a0031000603430087834b0030
:100b90000001530081815b00f8ff33000203be00b7
:100ba0000800a0000804440089844c00f6ff3900c6
:100bb000c639dd00830173000100320013002000fc
:100bc0008904d1000884d3000998a30005003200ed
:100bd0000800a7000300a0008904d1000884d30006
:100be0008b05e8008904d1000884d3000001eb00e4
:100bf0000281d2005d00070001f0a1000cf0a70007
:100c000001f0a000a50037006420e100a700320039
:100c10000801be000200be00f7ff37006120e100be
:100c2000a20032006000b800f3ff3700000020008f
:100c300001f82700f0ff37000001be007100070037
:100c40000470a70003f0a10003f8a30013003a000a
:100c50006509b10010003200090035006928e10083
:100c600002003500010028000000050000004000df
:100c7000818048008502e900fcff3a000000060080
:100c8000f88f4200050035008100d1000080d300bc
:100c90008502e800fcff3a00000006008000eb003f
:100ca000000005004f89de0082017800f101370065
:100cb000889fbe008a9fbe000082700004027100ff
:100cc00004827100260032000004be000200be0053
:100cd0006011b8006b092000950220000182cf004e
:100ce0000a0039000541b1000082cf000700390039
:100cf0000541b1000982cf00040039000541b1006f
:100d00000882cf00010039000541b10005425200c0
:100d1000120032000a003b00828171006101640010
:100d20008100d1000080d3008984d3000884d300df
:100d30008b05e8000442e800f7ff3a00070037009f
:100d40000804440089844c00000048008180480069
:100d50008b05e9000442e900f9ff3a0003000700af
:100d60004f05be004f04be000000060081002000b9
:100d7000618055000b003d000b00200061fe2f003c
:100d80000100e1001d0034008281710061016400f6
:100d90008904d1000884d3000000e800faff3a007b
:100da0007100200061006400030070000200600018
:100db0000900320061044400e0844c000988a50069
:100dc000050032008b05e8006808e10002003a00e7
:100dd0008904d1000884d300f20f20000258e100fa
:100de00005003d00c75ddd00f907b2008980750090
:100df00008007800000006000bf827008b00780040
:100e000000000500c70ade00f107b200f50fb200ce
:100e100008003200e1cf4200020032000170a00061
:100e200024000500810f7000010032000408050055
:100e300044000500810f700002003a001400050014
:100e40008502e9000000400081c04800fcff3b0033
:100e50000170a000240005000004be00e9ff0700a7
:100e60000003be000405be000200be00e5ff07004f
:100e7000844f7500000006000200be006450e100cf
:100e8000050036006420e100020036000968a30076
:100e900001003a000800be000160a0004f06780083
:100ea0004f05be004f04be0000000600f0ff2f00fb
:100eb000f1ff2700f9ff3700889fbe008a9fbe0020
:100ec0008c1f7800e4ff0700ebff330003866c0003
:100ed0006450e100240032006420e1002700320069
:100ee0006150e100220032006120e1002100320067
:100ef0008b854200eb07b1000134b800003ab8001e
:100f00000804420089844a00013ab8000030b80061
:100f10008880400009014a000400330000004000be
:100f200081804800020149008b05e900c909dd0004
:100f3000830170000100320013002000c814de009d
:100f40004814dd004709de001200b200c808de00c8
:100f50000884700085ff070001f0a1000cf0a700d5
:100f600001f0a000cdff37006120e100cfff32008b
:100f70000801be000200be00f7ff37006150e1002b
:100f8000fcff3a00c9ff37000000fa00889fbe004e
:100f90008a9fbe003004be002005be000404440049
:100fa00085844c0006054d0087854d000898be00dd
:100fb0000a90be000440e10005c8e10006d0e1004f
:100fc00007d8e10002003100680040001008e80086
:100fd0004f05be004f04be000080fa00000006006e
:100fe0001000fa00889fbe008a9fbe000605be0062
:100ff0000404be003002be002003be00049fbe00f9
:101000000697be00110020000802520089825a0093
:101010000a035b008b835b00440798005507980028
:1010200066079800770798000498be000698be00ef
:101030003e02be002e03be000820e10009a8e10028
:101040000ab0e1000bb8e100010039008000eb00bc
:101050004f05be00108810004f04be000080fa004b
:10106000000006001400fa00889fbe005b00070025
:101070008a9fbe008c9fbe000006eb004c079800c4
:101080003c0798002c0798001c0798000c0f78006c
:101090000605be000404be000d0420004e039000af
:1010a000be029000860343002e029000e00f530022
:1010b00003003d002a000700b3ff070002003700cd
:1010c00027000700c6ff0700ce029000150f98000a
:1010d000e08f520009003500450007001400200091
:1010e000050020006033b8000000720081807200ab
:1010f0000201730083817300380007000c06e800ca
:101100008d0f5600e5ff3a001e0a9000e00f5200d6
:1011100004003d000802be000a03be000e00780075
:1011200099ff07004eba9700e00f520006003a0000
:101130003e04be002e05be005807980069079800bf
:101140007a0798000b0f98004f06be002800070092
:101150004f05be004f04be000080fa0000000600ec
:101160004f2bde0022000700868373008582420039
:101170004f23de0047079800868272000402420077
:10118000350798009e0290004f2bde0085824200ba
:1011900006027200240798001e0278004f23de002a
:1011a0000402420086827200150798004f18de0084
:1011b000000f72000e0007000802be000a03be0006
:1011c00000004000818048000201490083814900fd
:1011d000020007000e00780000000600500798008b
:1011e0006107980072079800030f9800000006003e
:1011f0005e009000ee0090007e0190008e0990004d
:10120000000006000000fa00881f78001800200087
:10121000881f780093ff07008f87e9004f0478004c
:101220000080fa00000006000000fa00801feb00ba
:101230008cff07008f87e9000080fa00000006009d
:101240000000fa00889fbe008a9fbe00e00f500099
:10125000e08f5800e00f5900e08f59000c003d006e
:101260006044b8006055b8000000540081805c0004
:1012700002015d0083815d00180020001600070058
:1012800008003d00190007000004eb0005003700ce
:101290000004eb001000070002003d0013000700ef
:1012a00018002000d7ff0700e00f540006003200ae
:1012b0006022b8006033b8000000520081805a00fc
:1012c00002015b0083815b004f05be004f04be003e
:1012d0000080fa0000000600e00f5200e08f5a0084
:1012e000e00f5b00e08f5b00000006006044b80088
:1012f0006055b8000402540085825c0006035d005e
:1013000087835d00000006000000fa00889fbe0091
:101310008a9fbe008c1f7800e00f5000e08f5800bd
:10132000e00f5900e08f59000d003d006044b80007
:101330006055b8001c0020000000540081805c0053
:1013400002015d0083815d000820e10009a8e10041
:101350000ab0e1000bb8e1000d003d0008003700c5
:101360000006eb00e00f5200e08f5a00e00f5b0038
:10137000e08f5b0006003d006044b8006055b80097
:101380000402540085825c0006035d0087835d00d3
:10139000a5ff0700e00f5600060032006022b800eb
:1013a0006033b8000000520081805a0002015b00e7
:1013b00083815b004f0678004f05be004f04be00de
:1013c0000080fa00000006000000fa00889fbe00be
:1013d0008a9fbe008c1f78000006eb00e00f5000d3
:1013e000e08f5800e00f5900e08f590007003d00e2
:1013f0006044b8006055b8001c0020000000540094
:1014000081805c0002015d0083815d00e00f52007d
:10141000e08f5a00e00f5b00e08f5b0007003d00ab
:101420006044b8006055b8000c00a20004025400eb
:1014300085825c0006035d0087835d001d00070058
:10144000e00f5600060032006022b8006033b8009a
:101450000000520081805a0002015b0083815b0022
:101460004f0678004f05be004f04be000080fa0012
:1014700000000600881f7800030478000300e000e5
:1014800007003d0060001000e080180060011900b6
:10149000e081190002003b0001f02d00030037003d
:1014a00003fe070008f0a70001f0a0004f04780039
:1014b00000000600889fbe008a9fbe008c9fbe0071
:1014c0000404b8000506b8008904460060854e0093
:1014d0000606b8000a054600e0854e000706b8007b
:1014e0008b054600040eb800890446000a854e00ac
:1014f000e0854d00050eb8000a0546008b854e00bc
:10150000060eb8008b0546000416b8000a05460012
:101510008b854e000516b8008b054600041eb800ea
:101520008b0546000800be000a01be004f06be0043
:101530004f05be004f04be000000060006c2b30007
:101540000000fa000002780004007800b042780041
:1015500086cf5200fbff3200e9cf5200f9ff320084
:10156000d6c2b30086cf520003003a0000027800d2
:1015700016c0b300050037000043eb00b7c2b3004c
:1015800087cf520001003a00000278000000eb0013
:1015900002003700ea00b90000804200b402fb00fc
:1015a0000503b100e98f5200faff3600e04f530007
:1015b000010032000000ea000080fa00000006008e
:1015c000810378000000fa008001780007027800ab
:1015d0000100370085017800110009000282d8005f
:1015e0008302e80000027800e00f5200f9ff3a00a1
:1015f000844a7800110009008283d80080027800b4
:101600000142780085037800e94f52000100340060
:101610006742420001c3b30081514200e08f520093
:10162000f4ff3a00030078000080fa000000060092
:101630000000fa00881f780000047800e08f500056
:1016400005003d0008007800d4c2b3008100ea0024
:10165000045878000100370008007800d8ff070020
:10166000080078004f0478000080fa0000000600af
:101670000000fa000002780002003700315a7800ba
:101680000201e900e00f5100fcff3a000080fa007f
:10169000000006000000fa00000278000200370097
:1016a000015a78000201e900e00f5100fcff3a0006
:1016b0000080fa00000006000000fa000002780036
:1016c00084027800050278000043eb00b44f130059
:1016d000fbff3a0031427800845a7800e04f520014
:1016e000fcff3a000080fa00000006000000fa004b
:1016f000000278000400780000027800b44278000c
:1017000081cf520003003200e0cf5200f9ff3a00cf
:101710000000eb000080fa00000006000000fa0064
:10172000b042780031c2520002003a00e0cf5200cd
:10173000fbff3a000400fb000080fa0000000600f6
:101740000000fa0000027800b1427800055a7800e3
:10175000e0cf5200fcff3a000080fa0000000600d3
:101760000000fa00000278008042eb00b4cf1200c3
:10177000fdff3a000080ea000080fa00000042000d
:10178000000006000000fa000b003700304278002d
:10179000e04f5200030032000201e900b14f520055
:1017a000050032000480fb00954278008582fb0032
:1017b000050050000400370081027800e00f51005e
:1017c000f2ff3a00020078000080fa0000000600f4
:1017d0000000fa000002780006003700314378006c
:1017e0000201e900065a780084027800e04f5300b5
:1017f0000600320084027800e00f5100f7ff3a0043
:1018000002003700805aeb000201e900e00f5100ae
:10181000fcff3a000080fa00000006000000fa0019
:10182000889fbe000004be000c003700090078004d
:10183000cbff0700890078000001780008007800dd
:10184000d0ff0700e00f50000a0032000800e80057
:101850009900fb00a5ff070000047800e00f54008a
:10186000040032000042eb00984f1200efff3a00f4
:101870000004eb00080078004f04be000080fa006e
:10188000000006000c00fa00889fbe00f4ff27004d
:1018900000047800540798008004eb00080f7800db
:1018a0001907980028079800240c200068015700a9
:1018b00034079800ceb897000e00780006000700a5
:1018c0001e027800094a78001e0014004f04be0072
:1018d0000080fa00000006003a00fa00889fbe006f
:1018e000011798008a9fbe00421798008c9fbe0087
:1018f000800678000000eb00601798007303370043
:101900008e10900054c2b3008100e80001179800c7
:10191000844f500006003a00010278000006eb00f8
:1019200001c3b30000c2b300b7c2b3001000370058
:101930003d0290000404b200040032001d02780051
:10194000004a7800840ee800050037000000fb0024
:101950008d00780068030700e10f40005b03320050
:101960006e1190000201e8006217980057033700db
:1019700084027800d3c2b30034437800834f53000d
:101980000900320005003c00804f5300080032007f
:10199000874f53000c003a0007003700814f530077
:1019a00009003a00060037000c30a000f0ff3700b5
:1019b0000c00a000eeff37000c10a000ecff370079
:1019c0000c20a000eaff370062026600010032002e
:1019d0000c00a10068026600010032000c20a1008a
:1019e0000602fb000403b100e90f52000c003e00a8
:1019f000050378000002eb00b602fb00ea22b90002
:101a00000503b1009603fb00048242000703b10006
:101a100086027800e98f5300f7ff36000800370090
:101a20000002eb00a7c2b300874f530004003a0046
:101a30004e1390008502e800460278004617980091
:101a40008003eb00e6c2b30057179800954f1300d0
:101a50000c003a000ce0a00064435300d54f130083
:101a60000300320005037800070078000900370002
:101a70004e1490008502e800c804780048179800ca
:101a8000591798000503780009003700ea00b900eb
:101a90000080430086027800b603fb000703b10014
:101aa000e98f5300f9ff360050179800f5ff370013
:101ab000b6427800cbc6b300061798008bcf520011
:101ac000250032000f003c0036c6b30086cf52001e
:101ad000a400320004003c00e0cf520000033200ba
:101ae0006b4353000f00370046c6b30086cf520049
:101af000170032006543430086cf5200b7003a001a
:101b00001300370036c7b30086cf52001f003200e3
:101b100007003c006443530086cf5200140032009b
:101b20000643e80086cf5200ac003a0013003700ad
:101b300056c7b30086cf5200ad0032006343430066
:101b400086cf5200a5003a00054f78000d003700ff
:101b5000054f7800a8003700f0036600050120005b
:101b600001003200050028000c867200d0ff37000b
:101b7000054f78000c60a0009f003700054f7800eb
:101b80000c50a0000c70a0009b0037004e1090007d
:101b9000054f7800c002780040179800751798002c
:101ba000e08f520002003a0022b626007217980019
:101bb0007e1390008002eb00010037008502e800f0
:101bc000850343008041eb0097cf1100fbff3a00f3
:101bd000051f9800de129000e08f520005003200d1
:101be0000e1b9000868f52000200310085037800a2
:101bf000071f98008e1a90000004eb00850f52001a
:101c000001003600050452006806660009c2b300f0
:101c1000110032002d0037003d0290000404b20094
:101c2000040032001d027800094a7800840ee800a2
:101c3000050037008d00780000022000ae0207008a
:101c4000e10f4000030032006e1590000a05e80025
:101c50006a1798000804e900e00f5400eeff3a000c
:101c60000084eb0019003700bd0290000504b200ab
:101c700009003200880278009d037800354378001f
:101c8000864b780005047800870ee800e04f53008b
:101c90000a003a0013003700880278008d007800af
:101ca0003500fb00441f98000504780092020700ed
:101cb0004e1a9000e10f40000a0032006e109000b2
:101cc0000000e80060179800060037000c0278005a
:101cd000080678007e1490008e1c90001e1d900057
:101ce000ae1d9000890278008504e900e08f520063
:101cf000ddff3a0078179800091f98001a1f980016
:101d00002b1f98000c04780004067800e00f5600a2
:101d10006e02320009c2b3006e1690000e0037004a
:101d20003d0290000404b200040032001d0278005d
:101d3000094a7800840ee800050037008d0078001d
:101d4000000220006c020700e10f40000100320099
:101d50000c06e8000804e900e00f5400f0ff3a0028
:101d600059023700ce1090007003660041047800dd
:101d700041179800cfc4de00090578008a05780075
:101d80000800be000a01be004800de00c80add00ef
:101d900000807200004f7800e00f5300090032000d
:101da000e04f500007003200e14f400005003200d4
:101db000260020001047980028479800061f98002a
:101dc0000300370017002000071f980018479800ed
:101dd0000e04e800781798007eff37001a002000f4
:101de000054f78007e1798000a1f980079ff37008a
:101df000054f78000c0cb3008c027800050cb20083
:101e00003b003a00e00f560005003d00ce12900066
:101e10004501be004500be00451798000f00370081
:101e2000f0026600120032004e1490004803be001b
:101e300046079800570798004817980098029000a6
:101e4000cfaade0065079800750798004e00900045
:101e5000de0090006e019000fe0190007017980067
:101e6000011f9800121f9800231f98000b003700d5
:101e7000ce109000c102780005047800cfc4de00c7
:101e8000090578008a0578004117980078179800ae
:101e9000091f98001a1f98002b1f98007e109000b1
:101ea0008e1890001e199000ae199000e00f50009f
:101eb000e08f5800e00f5900e08f590032003d00dc
:101ec0006000b8006011b8007e1490008e1c900075
:101ed0001e1d9000ae1d90003c00b3000804500091
:101ee000898458000a0559008b8559002200370063
:101ef000e00f560005003d00ce1290004501be00e7
:101f00004500be00451798000f003700f00266003c
:101f1000120032004e1490008004eb004803be0013
:101f20000005eb00460f9800570f9800690f9800c6
:101f30007a0f98004e089000de0890006e0990001d
:101f4000fe0990004817980070179800011f98002c
:101f5000121f9800231f98000b003700ce1090002e
:101f6000c10278004117980005047800090020009c
:101f70000a0020000b00200078179800091f980025
:101f80001a1f98002b1f9800de149000e08f540059
:101f90000d003a001a0020007e1090008e1890006c
:101fa0001e199000ae1990005a179800e00f5000cb
:101fb000e08f5800e00f5900e08f59000200320016
:101fc0008000eb00511798000c01780005042000f8
:101fd000020cb20032179800850f51003400320015
:101fe00003003c00e00f51000800320048003700b9
:101ff00005082000be119000858f510014003200aa
:10200000050c2000858f510041003a00a6a526004e
:1020100015c0b3003600be003601be007e1490002d
:102020008e1c90001e1d9000ae1d90000040e1002f
:1020300001c8e10002d0e10003d8e100330039001b
:102040008542e800f4cf5200f2ff3a002f0037003b
:1020500015c0b30000012000010020006011b8008d
:102060007e1490008e1c90001e1d9000ae1d9000ee
:102070000040e10001c8e10002d0e10003d8e10026
:1020800022003900490020000000d0008180d200e9
:102090000281d2008381d2008904e900faff3a006c
:1020a0008542e800f0cf5200edff3a0017003700fc
:1020b00015c0b30080002000010020006011b800ae
:1020c0007e1490008e1c90001e1d9000ae1d90008e
:1020d0000040e10001c8e10002d0e10003d8e100c6
:1020e0000a003900390020000000d0008180d200b1
:1020f0000281d2008381d2008904e900faff3a000c
:102100008542e800f5cf5200edff3a00054f780018
:102110009e02fb005e1590008a8f520002003d0077
:102120000a4f780004003700de159000858f5500b7
:1021300001003d0055179800e00f520003003200e7
:10214000e3026600010032000402e90005002400f9
:1021500085026600060032005e109000800f52007b
:102160000200340000025200010037000002eb00c0
:102170008000eb009e02fb0021179800850f5200a3
:1021800002003400850252002517980064026600a0
:1021900045003200e202660061026600e08f5200f4
:1021a00017003200bd0290000504b20008003200a2
:1021b0009d027800b6c2b300e00f52000100320069
:1021c00006c3e800864a7800850ee800080037005c
:1021d000b0022000e00f5200010032000080e80051
:1021e0008d00780044010700e10f40001600320026
:1021f0006e1190000201e80062179800120037008b
:10220000e00f5200100032003d0290000404b200c2
:10221000050032001d02780005c2b300054a7800af
:10222000840ee800050037008d00780000022000d1
:1022300031010700e10f400003003200ee11900071
:102240008301e800631798002e129000e00f5200ff
:102250005b00320008c3b300840478003d029000a4
:102260000404b200040032001d027800084a78001d
:10227000840ee800050037008d0078000003200080
:102280001d010700e10f400003003200ee12900034
:102290008502e800651798008904e900efff3a001d
:1022a00029179800460037002e139000e00f5300c6
:1022b000160032006802660014003a0008c2b3003b
:1022c000860478003d0290000404b200040032004d
:1022d0001d027800084a7800840ee80005003700e7
:1022e0008d0078000002200003010700e10f40008c
:1022f00003003200ee1390008703e8006717980090
:102300008904e900efff3a0029179800e20266000d
:1023100061026600e08f520017003200bd0290009b
:102320000504b200080032009d027800b6c2b30076
:10233000e00f52000100320006c3e800864a780030
:10234000850ee80008003700b0022000e00f5200c0
:10235000010032000080e8008d007800e6000700f0
:10236000e10f4000160032006e1490000804e800ef
:102370006817980012003700e00f5200100032007a
:102380003d0290000404b200050032001d027800f6
:1023900005c2b300054a7800840ee8000500370046
:1023a0008d00780000022000d3000700e10f4000fc
:1023b00003003200ee1490008904e80069179800c9
:1023c0005e15900024a526008a02e900f00566004b
:1023d000c32add000c007800048242000002b20033
:1023e000141798003b079800200798009c003700be
:1023f000de1090003e1190008100e90003042000ef
:1024000051179800830f51006f00320003003c0009
:10241000e00f5100080032007c0037000408200063
:10242000be129000848f520051003200040c200034
:10243000848f520075003a00e00f56001b003d00eb
:102440001e1390007e1090008e1890001e199000b0
:10245000ae1990003604be002605be000802be007c
:102460000a03be0067fb07000802be000a03be00a5
:10247000004f78000000fb00cf80de0001017800f3
:1024800082017800d0fb07007e1490008e1c900023
:102490001e1d9000ae1d90000004540081845c005d
:1024a00002055d0083855d0020003700be049000ba
:1024b000e08f5400220032001e1090007e12900027
:1024c0008e1a90003004be002005be00441f980004
:1024d0000400be000801be00351f9800100107006f
:1024e0000801be00004f78000000fb00cf80de0036
:1024f0001b0107004e1a9000be1a90000001520006
:1025000081815a000002eb00020f9800130f98001f
:10251000340f98008001eb00230f98000e0c900000
:102520009e0c90002e0d9000be0d90007817980024
:10253000091f98001a1f98002b1f980009003700e8
:102540009e1490007e159000190278001100090079
:102550000485d800a4002000110009000480d800e0
:10256000014f78000bc3b3001ecf45002700370092
:1025700014b526002e009000e00f5000010032003c
:1025800004b42600de109000c20add007e10900028
:102590008e1890001e199000ae1990008502e90077
:1025a000050033008301d1000281d3008180d30074
:1025b0000080d300f9ff3700ef02600005024200ff
:1025c000144f7800110037005e1190007e149000c7
:1025d0008e1c90001e1d9000ae1d9000e312b900ed
:1025e00001c3b300040078000000e90005003300d7
:1025f0008b05d1000a85d3008984d3000884d300d9
:10260000f9ff370067426400014f42003d0290002d
:102610000404b200070032009d0278001e427800d8
:10262000844a7800850ee800e04f520006003a0028
:10263000080037001e00fb008d0078002e00070008
:10264000e10f4000030032006e1190000201e8002b
:10265000621798009e119000e881510013179800ae
:102660005e129000e00f520061ff3a0068066600bb
:1026700016003200ae129000e08f520013003400ba
:102680006e16900008c2b300850478003d029000e9
:102690000404b200040032001d027800084a7800e9
:1026a000840ee800050037008d007800000220004d
:1026b00011000700e10f4000010032000c06e800a5
:1026c0008904e900f1ff3a006c1798000e1390009e
:1026d00016407800004f7800e04f500088fc3a0028
:1026e0004f06be006e1090004f05be004f04be00a6
:1026f0000080fa00000006000000fa00889fbe007b
:10270000010478008084eb0038029000e20262004d
:102710003b00320004037800980290000620b200cb
:1027200002003a00e08f520035003a000490a00009
:102730008004780034049800f90fb200e08f520052
:1027400002003a00a8029000050c7800ea8f5400bd
:1027500005003a000408b20003003a00880078003f
:10276000d0002000e4ff070018029000d80290007b
:10277000850f52000b0032000402e80015c0b300c0
:102780001404980018027800094a7800040ce80044
:10279000a4bf2600054a7800ea8f540018003a00ca
:1027a000050037000940780088007800180007000d
:1027b0008004780012003700380290000410b20044
:1027c0000f00320018019000a8009000480090000f
:1027d000f1f7070018029000840f50000400320047
:1027e000380290000403b300340498008084eb00a6
:1027f0000002eb001404980028029000040c7800fa
:10280000090078004f04be000080fa0000000600b6
:102810000200fa00889fbe0001047800004f780093
:1028200038029000840278000504b20002003200f1
:102830000000fb0033003700e202620005003a00ae
:102840000403b30015049800340498000080eb00e2
:102850002c003700d8049000e08f540006003a00a6
:10286000120020008e00780048009000caf7070090
:102870001904980022003700a8029000e08f52004f
:1028800008003a00e5bf26000430a00025049800a7
:10289000050c7800340498002500200055049800a9
:1028a0001504980018019000a800900048009000be
:1028b000b9f70700280290008082eb001504980009
:1028c0001e4a7800040ce800a4c0b3009e4f12001a
:1028d0000b003a00380290000410b20008003200e9
:1028e00018019000a800900048009000aaf7070087
:1028f0000002eb001404980028029000040c7800f9
:102900001e00fb004f04be000080fa00000006001d
:102910000000fa0000c0da000080fa0000000600a3
:102920006022b800060220000000d0008180d200a2
:102930000482d2008582d2000000a0000202520070
:1029400083825a00030031000202420083824a005f
:102950000000a1000603e900f3ff3a0000000600b2
:10296000020ab900001bb9000200b8008100420051
:08297000810043000000060095
:020000040000fa
:102978002c000000383000000000000000000000bb
:10298800000000005443000050000000777700006a
:1029980077000000000000000000000062730000e3
:1029a8006e6c00006e6500007400000000000000fe
:1029b800696e000074650000726e000065740000a6
:1029c800000000006169000072630000656c00008f
:1029d8006770000072730000000000000000000033
:1029e8000000000000000000000000006169000015
:1029f80072740000656c000067700000727300005c
:102a08002e6300006f6d0000000000000000000051
:102a180000000000220000006c69000076650000dc
:102a28002e61000063650000646300002e690000e9
:102a38006e00000000000000000000000000000020
:102a4800000000000000000000000000000000007e
:102a5800000000000000000000000000000000006e
:102a6800000000000000000000000000000000005e
:102a780000000000000000000000000043300000db
:102a88003334000000000000303000002e31000018
:102a980030000000303000003030000030300000de
:102aa80030320000000000003939000030300000ea
:102ab80030330000383400003739000000000000cf
:102ac80000000000000000000000000000000000fe
:102ad800393900003030000030330000383400004d
:102ae800373900000000000000000000000000006e
:102af80000000000000000003831000039370000f5
:102b08003636000033340000353400000000000081
:102b180000000000000000000000000000000000ad
:102b280039390000343500003035000038390000ec
:102b38003830000000000000000000000000000025
:102b480000000000000000003832000031370000ab
:102b5800303200003736000039390000000000002c
:102b6800000000000000000000000000000000005d
:102b78006169000072740000656c000067700000f5
:102b8800727300002e6300006f6d000000000000eb
:102b9800000000000000000000000000000000002d
:102ba80000000000000000000000000032300000bb
:102bb800303000003030000030300000303000008d
:102bc80030300000423000003045000000000000b6
:102bd80000000000736500007420000073650000a9
:102be8007276000065720000616400006472000083
:102bf800007300006574000020610000706e000022
:102c0800007300006574000020610000707000000f
:102c1800696400000073000065740000206400000f
:102c28006576000069630000657400007970000033
:102c3800650000007365000074200000726d0000dc
:102c48006375000061640000647200006573000031
:102c5800730000007365000074200000636f0000bb
:102c68006e6600006967000075720000656e0000fe
:102c7800756d000000670000657400002072000098
:102c88006d630000757300006574000074690000ce
:102c98006e67000073000000726500007374000026
:102ca8006172000074000000736500007420000069
:102cb8007274000063000000736500007420000057
:102cc800776500006270000065720000696f00009f
:102cd800640000004d6f0000626900006c65000030
:102ce80020500000686f00006e65000020000000a2
:102cf80020630000616e0000206e00006f77000006
:102d080020730000656e000064200000636f0000ff
:102d18006d6d0000616e0000647300002074000097
:102d28006f200000636f00006e6600006967000096
:102d380075720000652000007468000065200000be
:102d48004143000045200000524d0000435500005b
:102d580073000000207300007563000063650000c5
:102d6800737300000020000065720000726f00009d
:102d780072200000004900006e760000616c0000bf
:102d880069640000204300006f6d00006d61000061
:102d98006e640000007300006574000000530000ba
:102da80065740000005300004554000000670000ef
:102db80065740000004700006574000000470000cb
:102dc800455400000072000065730000657400003f
:102dd8000052000065730000657400000052000096
:102de8004553000045540000007200006573000060
:102df80074610000727400000052000065730000e6
:102e08007461000072740000005200004553000015
:102e1800544100005254000000300000310000000e
:102e28003032000000300000330000003034000071
:102e3800003000003500000030360000003000008f
:102e4800370000003038000000730000657400008f
:102e580020740000696d00006572000073000000b6
:102e68006765000074200000736200007270000043
:102e78006c6300007365000074740000696e0000e4
:102e8800677300000072000065730000657400003d
:102e9800207000006c63000000730000657400007f
:102ea800206d0000616900006e740000656e00000e
:102eb800616e0000636500006d6f000064650000ce
:102ec8000073000065740000207000006c6300004f
:102ed800207200007463000000770000726900002f
:102ee800746900006e6700002073000065720000be
:102ef8007665000072200000525400004320000054
:102f0800746f00002053000042520000205000005f
:102f18004c430000005000004f53000054200000b4
:102f280068740000747000003a2f00002f6c0000d5
:102f380069760000652e000061630000656400008a
:102f4800632e0000696e00002f700000617200009f
:102f5800736500002e610000737000007820000087
:102f680048540000545000002f3100002e3100005a
:102f78000d0a0000436f00006e740000656e0000cb
:102f8800742d000054790000706500003a2000009c
:102f980061700000706c00006963000061740000db
:102fa800696f00006e2f0000782d00007777000011
:102fb800772d0000666f0000726d00002d7500000f
:102fc800726c0000656e0000636f000064650000ad
:102fd800640d00000a4800006f730000743a000096
:102fe800206c000069760000652e00006163000017
:102ff80065640000632e0000696e00000d0a000081
:10300800436f00006e740000656e0000742d0000b0
:103018004c6500006e670000746800003a0000000c
:10302800504f0000535400002068000074740000e2
:10303800703a00002f2f00006c69000076650000d0
:103048002e61000063650000646300002e690000c3
:103058006e2f00007061000072730000652e000082
:10306800617300007078000020480000545400008c
:10307800502f0000312e0000310d00000a00000022
:103088000d0a0000436f00006e6e000065630000cb
:10309800746900006f6e00003a2000004b65000064
:1030a800657000002d4100006c6900007665000025
:1030b8000d0a00000d0a0000002b0000515000000e
:1030c8004f570000443d000031000000415400000b
:1030d8004530000000410000540000002b43000070
:1030e80047410000545400003d300000002b000010
:1030f80043530000510000002b5100004e490000ce
:10310800545a00003d310000002b0000514c0000d3
:1031180054530000002b0000434300004c4b0000b8
:103128003d22000000220000002b00004343000065
:103138004c4b00003f0000002b43000046550000a8
:103148004e3d0000310000002b510000535000009c
:103158004e3f0000002b000043520000454700008e
:103168003f0000002b430000475200004547000085
:103178003f0000002b43000047410000545400006a
:103188003f0000002b43000047410000545400005a
:103198003d310000002b0000514900004e4900005d
:1031a8005354000041540000002b0000434d000020
:1031b800474600003d310000002b0000434d000051
:1031c800475300003d220000002b0000434d000043
:1031d800475200003d0000002b5100004d47000001
:1031e800444100003d000000444500004c20000020
:1031f800524500004144000000440000454c0000d6
:10320800204100004c4c0000002b000051490000f8
:1032180046470000434e0000543d000030000000c7
:103228002b5100004943000053470000503d000067
:10323800310000002b510000494d00005558000096
:103248003d300000002b00005149000054430000ad
:10325800464700003d3300002c3200002c310000ae
:1032680030320000342c0000310000002b510000e7
:10327800494400004e530000495000003d31000011
:10328800002b000051490000524500004741000052
:1032980050500000002b000051490000414300003d
:1032a800540000002b510000494f00005045000019
:1032b8004e3d0000002b000051490000534500001e
:1032c8004e440000002b000051490000434c000010
:1032d8004f530000450000002b51000049440000f6
:1032e8004541000043540000002b00002b2b000038
:1032f800002b0000393100000030000030300000a1
:103308003030000030300000300000003030000065
:103318003030000000300000303000003030000055
:103328003030000030300000303000003030000015
:103338003030000030000000425400003a00000025
:10334800627400003a0000002c460000533a000066
:10335800002c0000464500003a0000002c41000007
:10336800533a0000002c0000414500003a000000dc
:103378002c530000533a0000002c00005345000075
:103388003a0000002c440000533a0000002c0000d2
:10339800444500003a0000002c490000533a000060
:1033a800002c0000494500003a0000002b510000a5
:1033b800494d00004f440000453d0000300000002a
:1033c8000d0a0000005200004d4300005520000087
:1033d800494400003a200000004300006f6e0000de
:1033e800666900006775000072610000746900007a
:1033f8006f6e0000204e00006f3a000020000000b1
:1034080053650000727600006572000020410000dc
:1034180064640000723a000020000000415000007f
:103428004e20000041640000647200003a20000051
:10343800004100005050000020490000443a0000bc
:103448002000000044650000762000005479000048
:10345800706500003a200000005700006562000017
:103468002050000065720000696f0000643a000097
:10347800200000003343000000410000313000000c
:103488003000000030330000003000003000000041
:1034980030300000003000003600000030430000eb
:1034a800003000003600000030310000003200001b
:1034b8003030000030300000303000003030000084
:1034c800303000003042000030300000440000007e
:1034d800433000003334000000300000303000007a
:1034e8003030000030300000320000003031000081
:1034f80000300000320000003033000000300000cf
:103508003400000046300000323900000046000058
:103518003032000041000000463000003335000022
:103528000046000030320000420000004630000033
:103538003241000000330000450000004630000022
:10354800004600003030000031000000303000003c
:103558003031000000300000303000003200000040
:103568003030000030330000003000003030000000
:10357800340000003030000030350000003000001a
:1035880030300000360000003030000030370000d6
:1035980000300000303000003800000030300000fb
:1035a80030390000003000003030000041000000d9
:1035b80030300000304200000030000030300000a1
:1035c80043000000303000003044000000300000ac
:1035d8003030000045000000303000003046000068
:1035e80000300000303100003000000030300000b2
:1035f800313100000030000030310000320000009e
:10360800303000003133000000300000303100005d
:103618003400000030300000313500000030000078
:103628003031000036000000303000003137000033
:103638000030000030310000380000003030000059
:103648003139000000300000303100004100000036
:1036580030300000314200000030000031300000fe
:1036680031000000504f0000574500005220000074
:103678004f4e0000202000002020000000460000df
:10368800494c00004c2000002020000020200000b1
:1036980020200000200000004145000052410000a9
:1036a80054450000202000002020000020200000b9
:1036b8000053000045540000544c0000494e0000df
:1036c80047200000202000002000000044450000a2
:1036d800434100004e54000020200000202000003c
:1036e8002020000000490000444c00004520000054
:1036f80020200000202000002020000020000000e2
:10370800535400004f5000002020000020200000eb
:103718002020000020200000004400004542000056
:103728005547000020200000202000002020000035
:10373800200000004d410000494e000054450000a3
:103748004e4100004e4300004520000000460000a6
:10375800494c00004c2c000041450000524100003b
:1037680054450000200000004f46000046000000bd
:103778004f4e0000200000003244000000370000d7
:103788003100000030320000002500003032000017
:1037980058000000333100000031000042000000f2
:1037a80037420000003100003300000030300000d4
:1037b80030300000303000003031000000320000ae
:1037c800303000003030000030300000420000008f
:1037d8001f0000001c0000001f0000001e00000069
:1037e8001f0000001f0000001f0000001f00000055
:1037f8001e0000001f0000001e0000001f00000047
:103808001a00000041540000000d00000a000000ea
:103818002b4300004d4700005300000044610000a6
:10382800746500003a20000000480000545400006d
:10383800502f0000312e00003120000032300000ef
:10384800302000004f4b00000033000043410000cf
:1038580031300000303000003000000033430000f9
:1038680041310000303000003031000000450000d8
:10387800525200004f520000004300004c4f00001d
:1038880053450000440000002b4300004d54000045
:10389800493a0000002b0000434d00004752000049
:1038a8003a0000002b510000535000004e3a00002f
:1038b8000061000069720000746500006c0000007f
:1038c800627300006e6c000000690000646500000f
:1038d800610000004149000052430000454c0000cf
:1038e800007600006f640000616600006f6e0000e3
:1038f80065200000494e0000002b000043530000e3
:10390800513a0000002b00004352000045470000d8
:103918003a200000002b00004347000052450000f9
:10392800473a0000200000002b43000047410000f8
:10393800545400003a200000310000002b430000de
:1039480047410000545400003a20000030000000b5
:103958002b430000434c00004b3a0000002b0000b2
:10396800514e0000495400005a3a0000002b000054
:10397800514c0000545300003a0000005345000029
:103988004e440000204f00004b0000002b43000075
:103998004d53000020450000525200004f520000d5
:1039a8003a000000434f00004e4e0000454300001f
:1039b8005420000046410000494c0000004300002c
:1039c8004f4e00004e4500004354000000430000e5
:1039d8004f4e00004e45000043540000204f0000a9
:1039e8004b000000414c00005245000041440000db
:1039f80059200000434f00004e4e00004543000090
:103a080054000000434c00004f53000045200000c4
:103a18004f4b0000004400004541000043540000a3
:103a2800204f00004b0000002b510000494e0000c1
:103a38004953000054410000543a0000203300006c
:103a4800002b0000434d0000475300003a200000bf
:103a5800004e00004f5200004d4100004c20000075
:103a6800504f00005745000052200000444f00000e
:103a7800574e0000004f00004b0000004665000054
:103a880062000000004100007072000000000000a9
:103a98004a7500006e0000000041000075670000d4
:103aa800000000004f6300007400000000440000a4
:103ab80065630000000000004d6f00006e0000000c
:103ac8000057000065640000000000004672000016
:103ad8006900000000000000000000000000000075
:103ae8001f0000001c0000001f0000001e00000056
:103af8001f0000001f0000001f0000001f00000042
:103b08001e0000001f0000001e0000001f00000033
:103b18000d0a0000000000002564000000000000fd
:043b28007f0000001a
:020000040000fa
:103b2c000000fa00145f820005002000f60420005b
:103b3c0007002000860f5200878f5a00dc013e00e0
:103b4c0004060100dc0137004e003700da013700b3
:103b5c00d9013700d8013700d7013700d60137001b
:103b6c00d5013700d4013700d3013700d20137001b
:103b7c00d1013700d0013700cf013700ce0137001b
:103b8c00cd013700cc013700cb013700ca0137001b
:103b9c00c9013700c8013700c7013700c60137001b
:103bac00c5013700c4013700c3013700c20137001b
:103bbc00c1013700c0013700bf013700be0137001b
:103bcc00bd013700bc013700bb013700ba0137001b
:103bdc00b9013700b8013700b7013700b60137001b
:103bec00b5013700b4013700b3013700b20137001b
:103bfc00b1013700b0013700af013700ae0137001b
:103c0c00ad013700ac013700ab013700aa0137001a
:103c1c00a9013700a8013700a7013700a60137001a
:103c2c00a5013700a4013700a3013700a20137001a
:103c3c00a1013700a00137009f0137009e0137001a
:103c4c009d0137009c01370066003700ee003700fd
:103c5c00fe0037000e01370027013700190137002d
:103c6c005a01370094013700930137006401370083
:103c7c007001370076013700490137003b013700ee
:103c8c008d013700042d230015c0b300054a7800c0
:103c9c0072c0b300115221001000200093010700e4
:103cac00042d23008042eb00054a780022c2b300a9
:103cbc00419c2100100020008c010700a4e8220088
:103ccc0015c0b300054a7800a2c1b300017d2100e4
:103cdc001000200085010700749b810062026200c5
:103cec00e00f520004003a00749b810064026200f1
:103cfc00e00f520021003200749b81000420a100cf
:103d0c00749b8900749b810062026200e00f520078
:103d1c000200320014002000a4968900f42923002c
:103d2c008042eb00054a7800e429230080c2eb00b6
:103d3c00054a780014c0b300e329230052c0b30035
:103d4c0041b2200010002000b0010700f42923002c
:103d5c008042eb00054a7800e42923008042eb0006
:103d6c00054a780014c0b300e329230052c0b30005
:103d7c0041b2200010002000a4010700b59681007c
:103d8c000410200004826200e00f52004c013a0043
:103d9c00c47481000402e800c4748900c4748100f6
:103dac00e90f5200480136000002eb00c474890090
:103dbc00c4c12100841f7800409781005197810075
:103dcc006297810073978100849781009597810099
:103ddc00a6978100b7978100b92407008f87e90067
:103dec0040013700242d23008042eb00054a780067
:103dfc004433230095c0b300054a780044332300b4
:103e0c0094427800f4292300054a7800e429230021
:103e1c008042eb00054a780014c0b300e32923006c
:103e2c0062c0b30081192100100020007701070047
:103e3c00142d230014427800e04f5200240132006c
:103e4c007430230094427800e4292300054a78005a
:103e5c006430230094427800f4292300054a78004a
:103e6c009430230094427800042a2300054a7800f9
:103e7c008430230094427800142a2300054a7800e9
:103e8c00b430230094427800242a2300054a780099
:103e9c00a430230094427800342a2300054a780089
:103eac00d430230094427800442a2300054a780039
:103ebc00c430230094427800542a2300054a780029
:103ecc00f430230094427800642a2300054a7800d9
:103edc00e430230094427800742a2300054a7800c9
:103eec001431230094427800842a2300054a780078
:103efc000431230094427800942a2300054a780068
:103f0c003431230094427800a42a2300054a780017
:103f1c002431230094427800b42a2300054a780007
:103f2c005431230094427800c42a2300054a7800b7
:103f3c004431230094427800d42a2300054a7800a7
:103f4c007431230094427800e42a2300054a780057
:103f5c006431230094427800f42a2300054a780047
:103f6c009431230094427800042b2300054a7800f6
:103f7c008431230094427800142b2300054a7800e6
:103f8c00b431230094427800242b2300054a780096
:103f9c00a431230094427800342b2300054a780086
:103fac00b4c0b300e329230002c1b300117d21008a
:103fbc001000200015010700142d23008042eb0097
:103fcc00054a78004433230015c0b300054a780035
:103fdc004433230094427800f4292300054a7800e6
:103fec00e42923008042eb00054a780014c0b3009a
:103ffc00e329230062c0b3008119210010002000c6
:10400c0002010700b70037004433230015c0b3008a
:10401c00054a78004433230094427800f4292300a5
:10402c00054a7800e42923008042eb00054a780019
:10403c0014c0b300e329230062c0b300811921002e
:10404c0010002000f1000700a600370044332300c5
:10405c0095c0b300054a780044332300944278009d
:10406c00f4292300054a7800e42923008042eb0060
:10407c00054a780014c0b300e329230062c0b300e2
:10408c008119210010002000e00007009500370086
:10409c0004c82100841f7800c0968100d19681004d
:1040ac00e2968100f39681000497810015978100b8
:1040bc0026978100379781004a2407008f87e900f3
:1040cc008800370064002000248088002080800055
:1040dc0031808000428080005380800064808000aa
:1040ec0075808000868080001cdb020000000000d0
:1040fc00dd0507007b0037002401200034948a0082
:10410c008428250080c2eb00054a780004c82100f1
:10411c00841f7800c0968100d1968100e2968100c0
:10412c00f3968100049781001597810026978100f2
:10413c00379781002b2407008f87e900b496810004
:10414c000480a100b4968900a4e822008042eb0010
:10415c00054a780008250700c305070090002000d9
:10416c00bada0200000000005e003700e4b8260056
:10417c005403be004402be00e00f5200e08f5a0010
:10418c00e00f5b00e08f5b0053003a00345f82006d
:10419c00145f8a00345f8200245f8a00510037006c
:1041ac00e0b82600843e2000050020006033b800f3
:1041bc000498be000690be00e4042000145f8a0040
:1041cc00e4042000245f8a0046003700140020001d
:1041dc002480880020808000318080004280800014
:1041ec005380800064808000758080008680800011
:1041fc001cdb0200000000009b05070039003700a3
:10420c0044002000248088002080800031808000c1
:10421c004280800053808000648080007580800024
:10422c00868080001cdb0200000000008e05070069
:10423c002c003700e4d48200e60f520028003a002c
:10424c0024002000e4d48a008705070025003700ed
:10425c00c400200034948a0030948200419482007f
:10426c00529482006394820074948200859482003c
:10427c00969482002c8d0200000000008400200027
:10428c002480880020808000318080004280800063
:10429c005380800064808000758080008680800060
:1042ac001cdb0200000000006f0507000d0037004a
:1042bc00000000000b003700000000000900370070
:1042cc000000000007003700000000000500370068
:1042dc000000000003003700000000000100370060
:1042ec00000000000080fa00000006000600fa0042
:1042fc00000f78001107980042479800150ea8008f
:10430c00020420008000eb0020aa25004a0b0200ca
:10431c0000000000024020008000eb0080b6250069
:10432c004a0b0200000000001e02780004437800d3
:10433c0015c0b300e4e92200ce4190001e019000ac
:10434c0031c0b30006407800f0b902000000000054
:10435c0000427800c5e92200844a7800c4e92200b2
:10436c0014427800e04f52000c003a009e0290007c
:10437c00c4c12100848f520002003a00232407009c
:10438c001f003700ab000700ed0407000466260091
:10439c008042eb00054a780019003700b4748100a4
:1043ac000402e800b4748900b4748100e20f520076
:1043bc00130036000002eb00b4748900b59681003e
:1043cc000402200004826200e00f52000900320057
:1043dc008428250065c0b300054a7800b496810096
:1043ec000450a100b4968900c4042000145f8a0014
:1043fc0003003700e31e0700a4042000145f8a00aa
:10440c00150ea9000080fa00000006000c00fa004e
:10441c0010079800210798006247980043079800fe
:10442c00244f9800252ea800142d23008042eb0069
:10443c00054a7800020420008000eb0020aa250029
:10444c004a0b020000000000024020008000eb003c
:10445c0080b625004a0b0200000000000002eb00b1
:10446c00040f7800090037004e0290009442780047
:10447c00742b23001e024200054a78004e02900065
:10448c000402e800440798001e0fe8002e4a900032
:10449c000482fb00040242009e0f5200f2ff3c001b
:1044ac001e0290000443780015c0b300742b230047
:1044bc00ae4990002e019000ee409000064078002e
:1044cc00f0b902000000000000427800c5e92200ab
:1044dc00844a7800c4e9220014427800e04f52006c
:1044ec0031003a00242d2300144278008442e80065
:1044fc00242d2300054a7800155f82002404200037
:10450c00848f52000c003200155f820034042000ae
:10451c00848f520008003200242d230014427800ae
:10452c00e24f52001c003600155f8200740420001c
:10453c00848f520018003200309482004194820023
:10454c005294820063948200749482008594820059
:10455c00969482002c8d0200000000008400200044
:10456c002480880020808000318080004280800080
:10457c00538080006480800075808000868080007d
:10458c001cdb020000000000242d23008042eb0005
:10459c00054a7800ae040700142d230015c0b300a3
:1045ac00054a780020003700b47481000402e8004a
:1045bc00b4748900b4748100e30f52001a003a00fd
:1045cc008428250065c0b300054a78003094820029
:1045dc00419482005294820063948200749482000d
:1045ec0085948200969482002c8d020000000000bd
:1045fc00840020002480880020808000318080008e
:10460c004280800053808000648080007580800030
:10461c00868080001cdb0200000000000002eb0022
:10462c00b474890090040700252ea9000080fa00bc
:10463c00000006000800fa000002eb0014079800c6
:10464c000002eb00040f7800d4f625001442780029
:10465c000482fb0014079800042d230014427800f8
:10466c00e04f52000300320024002000445f8a0017
:10467c0009003700a4e8220014427800e04f5200f1
:10468c000300320094002000445f8a0002003700cf
:10469c0034022000445f8a000002eb00a4748900fd
:1046ac00b9033700445f820005002000f6042000a7
:1046bc0007002000860f5200878f5a00ac033e0083
:1046cc0004060100ac033700ab033700a900370028
:1046dc009b0037008d0037004a003700560037002a
:1046ec00620037006e003700af003700bd003700a6
:1046fc00c9003700d5003700e1003700ed00370066
:10470c00f900370005013700110137001d01370092
:10471c002901370035013700410137004d013700c1
:10472c005901370065013700710137007d013700f1
:10473c008901370095013700a1013700ad01370021
:10474c00b9013700c5013700d1013700dd01370051
:10475c00ec013700f7013700020237000d02370079
:10476c001902370024023700300237003e023700ae
:10477c004a02370058023700660237007a023700c7
:10478c008802370096023700a4023700b2023700c5
:10479c00c0023700d4023700e2023700f0023700c3
:1047ac00fe0237000b0337001703370023033700d3
:1047bc00330337003f0337004b0337005a033700ee
:1047cc006d0337006c0337006b0337006a03370047
:1047dc006903370068033700670337006603370047
:1047ec006503370064033700630337006203370047
:1047fc0061033700600337005f0337005e03370047
:10480c005d03370064024700220020009e00780000
:10481c0004007800620307002e029000be02900094
:10482c00847489009574890084748100f4968900dd
:10483c001e8fe8005103370064024700220020005d
:10484c009e00780004007800550307002e029000ab
:10485c00be02900084748900957489008474810070
:10486c00049789001e8fe800440337006402470058
:10487c00220020009e007800040078004803070006
:10488c002e029000be0290008474890095748900f9
:10489c0084748100349789001e8fe8003703370039
:1048ac0064024700220020009e007800040078007b
:1048bc003b0307002e029000be0290008474890016
:1048cc009574890084748100149789001597810070
:1048dc00f47c2000848f520004003e001597810068
:1048ec00047d20000482420014978900042d2300cb
:1048fc008042eb00054a78009e029000a574890066
:10490c0004052000445f8a001c0337006402470042
:10491c00220020009e00780004007800200307008d
:10492c002e029000be029000847489009574890058
:10493c0084748100e49689001e8fe8000f03370011
:10494c0064024700220020009e00780004007800da
:10495c00130307002e029000be029000847489009d
:10496c009574890084748100d49689001e8fe800a8
:10497c000203370064024700220020009e007800ea
:10498c0004007800060307002e029000be0290007f
:10499c00847489009574890084748100c49689009c
:1049ac001e8fe800f5023700640247002200200049
:1049bc009e00780004007800f90207002e02900097
:1049cc00be029000847489009574890004e9220069
:1049dc0094427800e4362300054a78001e8fe800e4
:1049ec00e602370064024700220020009e00780097
:1049fc0004007800ea0207002e029000be0290002c
:104a0c00847489009574890084748100849b890066
:104a1c001e8fe800d90237006402470022002000f4
:104a2c009e00780004007800dd0207002e02900042
:104a3c00be0290008474890095748900847481008e
:104a4c00949b89001e8fe800cc023700640247005b
:104a5c00220020009e00780004007800d00207009d
:104a6c002e029000be029000847489009574890017
:104a7c0084748100a49b89001e8fe800bf0237005c
:104a8c0064024700220020009e0078000400780099
:104a9c00c30207002e029000be02900084748900ad
:104aac009574890084748100b49b89001e8fe80082
:104abc00b202370064024700220020009e007800fa
:104acc0004007800b60207002e029000be0290008f
:104adc00847489009574890084748100c49b890056
:104aec001e8fe800a5023700640247002200200058
:104afc009e00780004007800a90207002e029000a6
:104b0c00be029000847489009574890084748100bd
:104b1c00d49b89001e8fe80098023700640247007e
:104b2c00220020009e007800040078009c02070000
:104b3c002e029000be029000847489009574890046
:104b4c0084748100e49b89001e8fe8008b0237007f
:104b5c0064024700220020009e00780004007800c8
:104b6c008f0207002e029000be0290008474890010
:104b7c009574890084748100f49b89001e8fe80071
:104b8c007e02370064024700220020009e0078005d
:104b9c0004007800820207002e029000be029000f2
:104bac00847489009574890084748100049c890044
:104bbc001e8fe800710237006402470022002000bb
:104bcc009e00780004007800750207002e02900009
:104bdc00be029000847489009574890084748100ed
:104bec00149c89001e8fe8006402370064024700a1
:104bfc00220020009e007800040078006802070064
:104c0c002e029000be029000847489009574890075
:104c1c0084748100249c89001e8fe80057023700a1
:104c2c0064024700220020009e00780004007800f7
:104c3c005b0207002e029000be0290008474890073
:104c4c009574890084748100349c89001e8fe8005f
:104c5c004a02370064024700220020009e007800c0
:104c6c00040078004e0207002e029000be02900055
:104c7c00847489009574890084748100449c890033
:104c8c001e8fe8003d02370064024700220020001e
:104c9c009e00780004007800750207002e02900038
:104cac00be029000749c8900859c8900e03823002a
:104cbc00e51f07001e8fe800300237006402470032
:104ccc00220020009e007800040078006802070093
:104cdc002e029000be029000549c8900659c8900b5
:104cec00a0382300d81f07001e8fe80023023700ce
:104cfc0064024700220020009e0078000400780027
:104d0c005b0207002e029000be029000b49c89004a
:104d1c00c59c890060392300cb1f07001e8fe8005b
:104d2c001602370064024700220020009e00780023
:104d3c00040078004e0207002e029000be02900084
:104d4c00949c8900a59c890020392300be1f070074
:104d5c001e8fe80009023700640247002200200081
:104d6c009e00780004007800410207002e0290009b
:104d7c00be029000f49c8900059d8900e039230057
:104d8c00b11f07001e8fe800fc01370064024700ca
:104d9c00220020009e0078000400780034020700f6
:104dac002e029000be029000d49c8900e59c8900e4
:104dbc00a0392300a41f07001e8fe800ef01370065
:104dcc0064024700220020009e0078000400780056
:104ddc00f30107002e029000be029000847489003b
:104dec009574890084748100149d89001e8fe800dd
:104dfc00e201370064024700220020009e00780088
:104e0c0004007800e60107002e029000be0290001c
:104e1c00847489009574890084748100249d8900b0
:104e2c001e8fe800d50137006402470022002000e5
:104e3c009e00780004007800d90107002e02900033
:104e4c00be0290008474890095748900847481007a
:104e5c00349d89001e8fe800c801370064024700aa
:104e6c00220020009e00780004007800cc0107008e
:104e7c002e029000be029000847489009574890003
:104e8c0084748100449d89001e8fe800bb013700ab
:104e9c0064024700220020009e0078000400780085
:104eac00bf0107002e029000be029000847489009e
:104ebc009574890084748100549d89001e8fe800cc
:104ecc00ae01370064024700220020009e007800eb
:104edc0004007800b20107002e029000be02900080
:104eec00847489009574890084748100649d8900a0
:104efc009e029000a5748900f4032000145f8a00c0
:104f0c009e01370064024700420020009e0078009a
:104f1c0004007800a20107002e029000be0290004f
:104f2c00b4998900c59989009e027800648f42006b
:104f3c009201370064024700420020009e00780076
:104f4c0004007800960107002e029000be0290002b
:104f5c00d4998900e59989009e027800648f4200fb
:104f6c008601370064024700420020009e00780052
:104f7c00040078008a0107002e029000be02900007
:104f8c00f4998900059a89009e027800648f42008a
:104f9c007a01370064024700220020009e0078004e
:104fac00040078007e0107002e029000be029000e3
:104fbc00847489009574890085748100359a890000
:104fcc001e8fe8006d01370064024700420020008c
:104fdc009e00780004007800710107002e029000fa
:104fec00be029000149a8900259a89009e027800ce
:104ffc00648f4200610137006402470022002000e8
:10500c009e00780004007800650107002e029000d5
:10501c00be029000847489009574890085748100a7
:10502c00459a89001e8fe80054013700640247003e
:10503c00220020009e007800040078005801070030
:10504c002e029000be029000847489009574890031
:10505c0004e9220094427800a4342300054a780025
:10506c001e8fe80045013700640247002200200033
:10507c009e00780004007800490107002e02900081
:10508c00be02900084748900957489008574810037
:10509c00659a89001e8fe8003801370064024700ca
:1050ac00220020009e007800040078003c010700dc
:1050bc002e029000be0290008474890095748900c1
:1050cc0004e92200144278000482fb00249b89002e
:1050dc001e8fe800290137006402470022002000df
:1050ec009e007800040078002d0107002e0290002d
:1050fc00be029000847489009574890004e9220032
:10510c00144278000482fb00349b89001e8fe80057
:10511c001a01370064024700220020009e0078002c
:10512c00040078001e0107002e029000be029000c1
:10513c00847489009574890084748100449b89006f
:10514c00459b8100f47c2000848f520004003e00bb
:10515c00459b8100047d200004824200449b890011
:10516c001e8fe80005013700640247002200200072
:10517c009e00780004007800090107002e029000c0
:10518c00be029000847489009574890004e92200a1
:10519c00144278000482fb00149b89001e8fe800e7
:1051ac00f600370064024700220020009e007800c1
:1051bc0004007800fa0007002e029000be02900056
:1051cc00847489009574890004e9220014427800e3
:1051dc000482fb00049b89001e8fe800e700370067
:1051ec0064024700220020009e0078000400780032
:1051fc00eb0007002e029000be0290008474890020
:10520c009574890004e92200144278000482fb00a2
:10521c00f49a89001e8fe800d8003700640247001a
:10522c00220020009e00780004007800dc000700bb
:10523c002e029000be02900084748900957489003f
:10524c0004e92200144278000482fb00a49a89002d
:10525c001e8fe800c90037006402470022002000be
:10526c009e00780004007800cd0007002e0290000c
:10527c00be029000847489009574890004e92200b0
:10528c00144278000482fb00b49a89001e8fe80057
:10529c00ba00370064024700220020009e0078000c
:1052ac0004007800be0007002e029000be029000a1
:1052bc00847489009574890084748100c49a89006f
:1052cc00c59a8100f47c2000848f520004003e00bb
:1052dc00c59a8100047d200004824200c49a890092
:1052ec001e8fe800a5003700640247002200200052
:1052fc009e00780004007800a90007002e029000a0
:10530c00be029000847489009574890004e922001f
:10531c00144278000482fb00949a89001e8fe800e6
:10532c009600370064024700220020009e0078009f
:10533c00040078009a0007002e029000be02900034
:10534c00847489009574890004e922001442780061
:10535c000482fb00849a89001e8fe80087003700c6
:10536c0064024700220020009e00780004007800b0
:10537c008b0007002e029000be02900084748900fe
:10538c009574890004e92200144278000482fb0021
:10539c00749a89001e8fe800780037006402470079
:1053ac00420020009e00780004007800b000070046
:1053bc002e029000be029000f49d8900059e89008b
:1053cc00e03b2300481e07009e027800648f4200d9
:1053dc006a00370064024700220020009e0078001b
:1053ec0004007800a20007002e029000be0290007c
:1053fc00149e8900259e8900203c2300121e070064
:10540c001e8fe8005d003700640247002200200078
:10541c009e00780004007800950007002e02900092
:10542c00be029000349e8900459e8900603c23009a
:10543c00051e07001e8fe80050003700640247006d
:10544c00220020009e0078000400780088000700ed
:10545c002e029000be02900084748900957489001d
:10546c008474810095748100749d8900859d8900e8
:10547c00e03a2300f41d07001e8fe8003f003700c0
:10548c0064024700220020009e007800040078008f
:10549c00770007002e029000be029000949d8900b8
:1054ac00a59d8900203b2300e71d07001e8fe80007
:1054bc003200370064024700220020009e00780072
:1054cc00040078006a0007002e029000be029000d3
:1054dc00b49d8900c59d8900603b2300da1d07003f
:1054ec001e8fe800250037006402470042002000b0
:1054fc009e00780004007800290007002e0290001e
:10550c00be029000847489009574890084748100b3
:10551c0095748100c4978900d59789009e02780004
:10552c00648f4200150037006402470022002000ff
:10553c009e00780004007800190007002e029000ed
:10554c00be029000847489009574890004e92200dd
:10555c0094427800c42f2300054a78009e029000e4
:10556c00a574890004052000145f8a00030037002d
:10557c00000000000100370000000000445f8200c2
:10558c000402e800445f8a00a57481001e029000aa
:10559c00848f520043fc39000080fa0000000600a2
:1055ac000a00fa00000278003107980042079800c0
:1055bc00e5f62500050f7800be0290001e8f420014
:1055cc00ce029000e28f5200140036009e0278004a
:1055dc0095427800354798001e0fe8009e0278002f
:1055ec0095427800254798001e0fe8009e0278002f
:1055fc0095427800554798001e0fe8009e027800ef
:10560c0095427800454798001e0fe800a57481006c
:10561c00e4824200a57489000f0037008042eb0041
:10562c00554798008042eb00454798009e02780051
:10563c0095427800354798001e0fe8009e027800ce
:10564c0095427800254798001e0fe800a57481004c
:10565c008582e800a57489001e039000ae039000bb
:10566c00068abe00040078000080fa0000000600e4
:10567c000a00fa00000278003107980042079800ef
:10568c00e5f62500050f7800be0290001e8f420043
:10569c00ce029000e28f5200140036009e02780079
:1056ac0095427800354798001e0fe8009e0278005e
:1056bc0095427800254798001e0fe8009e0278005e
:1056cc0095427800554798001e0fe8009e0278001e
:1056dc0095427800454798001e0fe800a57481009c
:1056ec00e4824200a57489000f0037008042eb0071
:1056fc00554798008042eb00454798009e02780081
:10570c0095427800354798001e0fe8009e027800fd
:10571c0095427800254798001e0fe800a57481007b
:10572c008582e800a57489001e039000ae039000ea
:10573c00068abe00040078000080fa000000060013
:10574c000000fa00155f820004052000848f5200cf
:10575c0003003200145f82000402e800345f8a0008
:10576c00355f820004042000848f520032003a001e
:10577c00a91d070000427800e04f52001c003200c7
:10578c00a4e8220014427800e04f52002c003200b2
:10579c003e0007001f0407004f0d070070110700a3
:1057ac00a4e822008042eb00054a7800b5968100ff
:1057bc000402200004826200e00f52000900320053
:1057cc008428250080c2eb00054a7800b49681003d
:1057dc000450a100b4968900c4042000145f8a0010
:1057ec001700370074042000145f8a00140037007f
:1057fc00d4748100e30f52000d003e00b49681007a
:10580c000480a000b4968900b49681000490a00096
:10581c00b4968900d47481000402e800d474890021
:10582c00681b070064042000145f8a000400370022
:10583c000d00070002003700d4042000145f8a001a
:10584c000002eb00b47489000080fa00000006002e
:10585c000000fa00040007000002eb00b474890099
:10586c000080fa00000006000000fa00f40420009a
:10587c00145f8a00f4042000345f8a00f4042000d2
:10588c00245f8a000080fa00000006008e00fa00f7
:10589c00889fbe006022b800340798004507980026
:1058ac000002eb00140798000002eb00240798009c
:1058bc006a024700020820008000eb000400780018
:1058cc004a0b020000000000024020008000eb00a8
:1058dc00203e23004a0b0200000000000002eb00f7
:1058ec00040f780005003700149f26001e024200aa
:1058fc008042eb00054a78001e0fe8001e0278007b
:10590c00e50f5200f8ff36000002eb00040f7800a0
:10591c0005003700d49d26001e0242008042eb0099
:10592c00054a78001e0fe8001e027800f30f5200a3
:10593c00f8ff3600c58b2600d49d26008500780024
:10594c0004007800a00b020000000000658b26000c
:10595c00149f26008500780004007800a00b02003c
:10596c0000000000e8a32900293e2300243e230068
:10597c0004007800b00b0200000000000002780068
:10598c000482440032002000880078000400780073
:10599c00380b02000000000018a42900293e230047
:1059ac00243e230004007800b00b0200000000002d
:1059bc000002780004824400520020008800780025
:1059cc0004007800380b02000000000068a42900d5
:1059dc00293e2300243e230004007800b00b020073
:1059ec000000000000027800048244003200200015
:1059fc008800780004007800380b020000000000da
:105a0c0098a42900293e2300243e2300040078009a
:105a1c00b00b020000000000000278000482440079
:105a2c00320020008800780004007800380b020057
:105a3c0000000000243e230004007800b00b02009c
:105a4c000000000000027800140798001e0290006d
:105a5c0024079800f496810084427800a408200062
:105a6c000e024200854078000400780030c8020025
:105a7c0000000000be4a91002e039000243e23003b
:105a8c0004024300054a78002e0290000402e8004c
:105a9c0024079800ae4a91002e039000243e230068
:105aac0004024300054a78002e0290000402e8002c
:105abc00240798000497810084427800c4082000d1
:105acc000e024200854078000400780030c80200c5
:105adc00000000006e82900054879800be4a91002e
:105aec002e039000243e230004024300054a780054
:105afc002e0290000402e80024079800ae4a9100a0
:105b0c002e039000243e230004024300054a780033
:105b1c002e0290000402e80024079800342e230083
:105b2c0094427800c40820000e02420085407800a0
:105b3c000400780030c80200000000006e82900063
:105b4c0054879800be4a91002e039000243e2300f7
:105b5c0004024300054a78002e0290000402e8007b
:105b6c0024079800ae4a91002e039000243e230097
:105b7c0004024300054a78002e0290000402e8005b
:105b8c0024079800242e230094427800c408200097
:105b9c000e024200854078000400780030c80200f4
:105bac00000000006e82900054879800be4a91005d
:105bbc002e039000243e230004024300054a780083
:105bcc002e0290000402e80024079800ae4a9100cf
:105bdc002e039000243e230004024300054a780063
:105bec002e0290000402e80024079800e49681003d
:105bfc0084427800c40820000e02420085407800e0
:105c0c000400780030c80200000000006e82900092
:105c1c0054879800be4a91002e039000243e230026
:105c2c0004024300054a78002e0290000402e800aa
